:03000000020D8B63
:0C0D8B00787FE4F6D8FD758131020DD2AE
:101319007C5D7DC01208897C2E7DE012089BD3EF8D
:0F1329009400EE9400400800EF1F70F21E80EF5A
:011338002292
:0600030000007F1BDFFE80
:0100090022D4
:101354007C64EF4E60131CEC60087D0A1DED60F6A2
:0913640080FAEF1F70EC1E80E915
:01136D00225D
:09142700D2A5D2A4C2A4C2A522E0
:07143000D2A5C2A4D2A42240
:021266008F2EC9
:10126800E4F52FF52FE52EC4131313540124FF9230
:10127800A4E52E25E0F52E120003D2A5120003C224
:10128800A5120003052FE52FC3940840D8D2A4D295
:01129800A5B0
:011299002232
:1013EB0030A40D051FE51FD3941E40F4C2A580F059
:0113FB0022CF
:0E140D00C2A5D2A4D2A5120003C2A5020003FC
:1012CA00D2A4120003E4F530D2A5120003E53125B9
:1012DA00E0F531A2A4E4334231120003C2A51200A0
:0C12EA00030530E530C3940840DEAF314E
:0112F60022D5
:10129A00E4FFD2A4FE0000C2A50000D2A50000EF20
:1012AA0025E0FF30A4010F00000EBE08E80000C2CE
:0F12BA00A50000C2A40000D2A50000C2A500003C
:0112C9002202
:1013D800E4FFFE000000000FBF00010EBE0BF4BFCB
:0213E800B8F15A
:0113EA0022E0
:0608FE0012085EFFD203A8
:100904002003030209B790FE817401F090FE82E097
:1009140030E6F990FE82E054BFF090FE867478F0E1
:1009240090FE817402F090FE82E030E6F990FE823F
:10093400E054BFF090FE817403F090FE82E030E654
:10094400F990FE82E054BFF090FE867440F090FE71
:10095400817402F090FE82E030E6F990FE82E05469
:10096400BFF090FE817403F090FE82E030E6F990CF
:10097400FE82E054BFF090FE86EFF090FE81740298
:10098400F090FE82E030E6F990FE82E054BFF090F1
:10099400FE817403F090FE82E030E6F990FE82E07E
:1009A40054BFF090FE817406F090FE82E030E6F9C8
:1009B400020A6090FE817401F090FE82E030E6F954
:1009C40090FE82E054BFF090FE867478F090FE8131
:1009D4007402F090FE82E030E6F990FE82E054BFAB
:1009E400F090FE817403F090FE82E030E6F990FE10
:1009F40082E054BFF090FE86E4F090FE817402F031
:100A040090FE82E030E6F990FE82E054BFF090FE62
:100A1400817403F090FE82E030E6F990FE82E054A7
:100A2400BFF090FE86EFF090FE817402F090FE829B
:100A3400E030E6F990FE82E054BFF090FE8174034A
:100A4400F090FE82E030E6F990FE82E054BFF09030
:100A5400FE817406F090FE82E030E6F990FE82E0BA
:040A640054BFF02269
:1012F700AE07ED24B0FFC203120904EE54F0C45444
:101307000F4410FFC203120904EE540FFFC2030279
:021317000904C7
:10139A00C2037F8D120904C2037F14120904C20317
:0513AA007FAF02090401
:1013AF00C2037F80120904C2037F10120904C20313
:0513BF007FAE020904ED
:1013C400E4FEE4FDD203E4FF1209040DBD08F50EAA
:0313D400BE80EFE9
:0113D70022F3
:100C4A001213D8C2037FAE120904C2037F401209ED
:100C5A0004C2037FB0120904C2037FC8120904C286
:100C6A00037F81120904C2037FFF120904C2037FB2
:100C7A00A1120904C2037FA6120904C2037FA812A3
:100C8A000904C2037F1F120904C2037FD312090495
:100C9A00C203E4FF120904C2037FD5120904C20386
:100CAA007FF0120904C2037FD9120904C2037F220A
:100CBA00120904C2037FDA120904C2037F0212096D
:100CCA0004C2037FDB120904C2037F49120904C26A
:100CDA00037F8D120904C2037F14120904C2037F21
:100CEA0020120904C2030F120904C2037FAF1209BA
:040CFA00040213C419
:041137008F168B186C
:10113B00E4F51DF51EE519540770028000AC05ECB3
:10114B00C395195029AD04AF161212F7AE16EEC3A4
:10115B0095185017AB1AAA1BA91C1208FE7401256F
:0E116B001CF51CE4351BF51B0E80E30C80D137
:011179002253
:080F14008F0B8D0C8A0D8B0E72
:100F1C00E4F514F515C3E515950EE514950D503B48
:100F2C00E50B2515FFAD0C1212F7E4FDFCC3ED9596
:100F3C0010EC950F501BAB11AA12A9131208FE74DA
:100F4C00012513F513E43512F5120DBD00010C80CB
:0B0F5C00DC0515E51570BE051480BA19
:010F67002267
:100E9F0090FE817401F090FE82E030E6F990FE82C0
:100EAF00E054BFF090FE8674AEF090FE817402F0B5
:100EBF0090FE82E030E6F990FE82E054BFF090FEA3
:100ECF0086EFF090FE817402F090FE82E030E6F93A
:100EDF0090FE82E054BFF090FE86EDF090FE81749C
:100EEF0002F090FE82E030E6F990FE82E054BFF00F
:100EFF0090FE817406F090FE82E030E6F990FE825B
:050F0F00E054BFF022D8
:100CFE0090FE817401F090FE82E030E6F990FE8263
:100D0E00E054BFF090FE8674AEF090FE817402F057
:100D1E0090FE82E030E6F990FE82E054BFF090FE45
:100D2E0086EFF090FE817402F090FE82E030E6F9DC
:100D3E0090FE82E054BFF090FE817401F090FE822E
:100D4E00E030E6F990FE82E054BFF090FE8674AF7C
:100D5E00F090FE817402F090FE82E030E6F990FE93
:100D6E0082E054BFF012000090FE817406F090FEF7
:0C0D7E0082E030E6F990FE82E054BFF005
:010D8A002246
:0C141B00121445EF64116002C322D322BA
:1013FC00E4FD7F04120E9F7F02120E9F7F05020EEA
:01140C009F40
:061445007FFF120CFE22E5
:071437007D087F06020E9FF5
:1010F1007F16120CFE8F297F17120CFEAC07EC1223
:1011010007E08F2D8E2C8D2B8C2AE4FFFE7D807CB9
:101111003DAB2DAA2CA92BA82A1206D0C004C005CC
:10112100C006C007AC29E41207E0D003D002D00109
:05113100D0001205DFF3
:011136002296
:100B62008B268A27892890FE817401F090FE82E00C
:100B720030E6F990FE82E054BFF090FE8674AEF04B
:100B820090FE817402F090FE82E030E6F990FE82DF
:100B9200E054BFF090FE86EFF090FE817402F09078
:100BA200FE82E030E6F990FE82E054BFF090FE81D2
:100BB2007401F090FE82E030E6F990FE82E054BFCC
:100BC200F090FE8674AFF090FE817402F090FE8287
:100BD200E030E6F990FE82E054BFF015258020AFA8
:100BE200251525EF603390FE82E4F090FE817405B6
:100BF200F090FE82E030E6F990FE82E054BFF012FF
:100C02000000AB26AA27A928EF120877740125282D
:100C1200F528E43527F52780C690FE827401F0900E
:100C2200FE817405F090FE82E030E6F990FE82E0EB
:100C320054BFF090FE817406F090FE82E030E6F937
:070C420090FE82E054BFF0B8
:010C49002288
:100A680075BAB090FE8074E0F090FE82E4F0120C4B
:100A78004AE4FF1211F6E4FF12122E7FFF121060F3
:100A8800E4FF12117AE4FF1211B87DFF7F041210FF
:100A98000F7FFF1210AA12136E90000C7401F090D1
:100AA800000CE064016003020B4D300006FF1210D9
:100AB80060C200900002E07004A3E0641970057F32
:100AC800FF12106030013C90000AE0FEA3E0FF7CBA
:100AD800007D0A12089BAF051211B890000AE0FECB
:100AE800A3E0FF7C007D0A12089B900000E06E7076
:100AF80003A3E06F600B900000EEF0A3EFF012117B
:100B08007AC201300299900004E0FEA3E0FF7C0065
:100B18007D0A12089BAF0512122E900004E0FEA376
:100B2800E0FF7C007D0A12089B900006E06E7003CF
:100B3800A3E06F600B900006EEF0A3EFF01211F641
:100B4800C202020AA790000CE0640260F890000C50
:0A0B5800E064036003020AA780F3C3
:10000E000000000000000000FCFFFF3FFCFFFF3F70
:10001E00FCFFFF3FFCFFFF3F3C00003C3C00003C70
:10002E003C00003C3C00003C3C00003C3C00003CE2
:10003E003C00003C3C00003CFCFFFF3FFCFFFF3F50
:10004E00FCFFFF3FFCFFFF3F000000000000000030
:10005E000000000000000000000000000000000092
:10006E000000000000000000000000000000000082
:10007E000000000000000000000000000000000072
:10008E000000000000000000FCFFFF3FFCFFFF3FF0
:10009E00FCFFFF3FFCFFFF3F0000000000000000E0
:1000AE0000000000000000003CC0FF3F3CC0FF3FCE
:1000BE003CC0FF3F3CC0FF3F3CC0033C3CC0033C48
:1000CE003CC0033C3CC0033C3CC0033C3CC0033C36
:1000DE003CC0033C3CC0033CFCFF033CFCFF033C28
:1000EE00FCFF033CFCFF033C00000000000000008E
:1000FE0000000000000000003CC0033C3CC0033C7C
:10010E003CC0033C3CC0033C3CC0033C3CC0033CF5
:10011E003CC0033C3CC0033C3CC0033C3CC0033CE5
:10012E003CC0033C3CC0033CFCFFFF3FFCFFFF3FD9
:10013E00FCFFFF3FFCFFFF3F00000000000000003F
:10014E000000000000000000FCFF0300FCFF0300A5
:10015E00FCFF0300FCFF030000C0030000C003000F
:10016E0000C0030000C0030000C0030000C0030075
:10017E0000C0030000C00300FCFFFF3FFCFFFF3F79
:10018E00FCFFFF3FFCFFFF3F0000000000000000EF
:10019E000000000000000000FCFF033CFCFF033CDD
:1001AE00FCFF033CFCFF033C3CC0033C3CC0033C57
:1001BE003CC0033C3CC0033C3CC0033C3CC0033C45
:1001CE003CC0033C3CC0033C3CC0FF3F3CC0FF3F37
:1001DE003CC0FF3F3CC0FF3F00000000000000009D
:1001EE000000000000000000FCFFFF3FFCFFFF3F8F
:1001FE00FCFFFF3FFCFFFF3F3CC0033C3CC0033C09
:10020E003CC0033C3CC0033C3CC0033C3CC0033CF4
:10021E003CC0033C3CC0033C3CC0FF3F3CC0FF3FE6
:10022E003CC0FF3F3CC0FF3F00000000000000004C
:10023E0000000000000000003C0000003C00000038
:10024E003C0000003C0000003C0000003C000000B0
:10025E003C0000003C0000003C0000003C000000A0
:10026E003C0000003C000000FCFFFF3FFCFFFF3F96
:10027E00FCFFFF3FFCFFFF3F0000000000000000FE
:10028E000000000000000000FCFFFF3FFCFFFF3FEE
:10029E00FCFFFF3FFCFFFF3F3CC0033C3CC0033C68
:1002AE003CC0033C3CC0033C3CC0033C3CC0033C54
:1002BE003CC0033C3CC0033CFCFFFF3FFCFFFF3F48
:1002CE00FCFFFF3FFCFFFF3F0000000000000000AE
:1002DE000000000000000000FCFF033CFCFF033C9C
:1002EE00FCFF033CFCFF033C3CC0033C3CC0033C16
:1002FE003CC0033C3CC0033C3CC0033C3CC0033C04
:10030E003CC0033C3CC0033CFCFFFF3FFCFFFF3FF7
:10031E00FCFFFF3FFCFFFF3F00000000000000005D
:10032E000FF00FF00FF00FF0FEFF3FFEFF3FFEFF4E
:10033E003F0E00380E00380E00380E00380E003812
:10034E000E0038FEFF3FFEFF3FFEFF3F00000000A5
:10035E00000000000000000000000000000000008F
:10036E0000000000000000FEFF3FFEFF3FFEFF3FCB
:10037E000EFC3F0EFC3F0EFC3F0E1C380E1C380EC2
:10038E001C380E1C380E1C380E1C38FE1F38FE1F73
:10039E0038FE1F380E1C380E1C380E1C380E1C383A
:1003AE000E1C380E1C380E1C380E1C380E1C38FE57
:1003BE00FF3FFEFF3FFEFF3FFE1F00FE1F00FE1F22
:1003CE0000001C00001C00001C00001C00001C0093
:1003DE00001C00FEFF3FFEFF3FFEFF3FFE1F38FEEC
:1003EE001F38FE1F380E1C380E1C380E1C380E1C03
:1003FE00380E1C380E1C380EFC3F0EFC3F0EFC3F18
:10040E00FEFF3FFEFF3FFEFF3F0E1C380E1C380E58
:10041E001C380E1C380E1C380E1C380EFC3F0EFC01
:10042E003F0EFC3F0E00000E00000E00000E0000FE
:10043E000E00000E00000E00000E00000E0000FE6A
:10044E00FF3FFEFF3FFEFF3FFEFF3FFEFF3FFEFF73
:10045E003F0E1C380E1C380E1C380E1C380E1C3865
:10046E000E1C38FEFF3FFEFF3FFEFF3FFE1F38FE15
:10047E001F38FE1F380E1C380E1C380E1C380E1C72
:10048E00380E1C380E1C38FEFF3FFEFF3FFEFF3FAE
:10049E000000000000000000200840048002F01F51
:1004AE001011A00A4004000000000000000000002F
:1004BE00000000000000FC03040204020402040217
:1004CE0004020402040204020402040204020402EE
:1004DE000402FC03F0000000000000000000000019
:1004EE000000000000000000000000000000FC03FF
:1004FE000402F402F402F4020402040204020402EE
:10050E0004020402040204020402FC03F0000000D0
:10051E0000000000000000000000000000000000CD
:10052E00000000000000FC030402F402F402F402D6
:10053E000402F402F402F4020402040204020402AD
:10054E000402FC03F00000000000000000000000A8
:10055E000000000000000000000000000000FC038E
:10056E000402F402F402F4020402F402F402F402AD
:10057E000402F402F402F4020402FC03F000000090
:10058E00000000000000000000000000000000005D
:10059E00000000000000FC030402040214023402F6
:1005AE006402C402F40234026402C402840204022D
:1005BE000402FC03F0000000000000000000000038
:0A05CE000000000000000000000023
:060F68007B147A00E4FD99
:080F6E008F0B8D0C8A0D8B0E18
:100F7600E4F511F512C3E512950EE511950D503500
:100F8600E50B2512FFAD0C1212F7E4F513F514C3A9
:100F9600E5149510E513950F5011D203E4FF1209DD
:100FA600040514E51470E8051380E40512E51270D3
:050FB600C4051180C01C
:010FBB002213
:1011F600EF75F050A4240EF9740035F07508FFF56C
:1012060009890A750F007510047F22120F68750F81
:1012160000751004850811850912850A137B147A56
:0812260000E4FD7F22020F1419
:10122E00EF75F050A4240EF9740035F07508FFF533
:10123E0009890A750F007510047F37120F68750F34
:10124E0000751004850811850912850A137B147A1E
:08125E0000E4FD7F37020F14CC
:10117A00EF75F050A4240EF9740035F07508FFF5E8
:10118A0009890A750F007510047B147A00E4FD7F43
:10119A0055120F6E750F0075100485081185091216
:0E11AA00850A137B147A00E4FD7F55020F14B2
:1011B800EF75F050A4240EF9740035F07508FFF5AA
:1011C80009890A750F007510047B147A00E4FD7F05
:1011D8006A120F6E750F00751004850811850912C3
:0E11E800850A137B147A00E4FD7F6A020F145F
:021060008F08F7
:10106200750BFF750C03750D2EE4F509E509244D8A
:10107200FF7D011212F7E4F50AAB0BAA0CA90D12BF
:10108200085E5508FFD2031209047401250DF50DFF
:10109200E4350CF50C050AE50AC3940240DB0509A8
:0710A200E509C3940440C5F9
:0110A9002224
:0210AA008F08AD
:1010AC00750BFF750C04750D9EE4F5097D02AF09F7
:1010BC001212F7E4F50AAB0BAA0CA90D12085E5537
:1010CC0008FFD2031209047401250DF50DE4350C4B
:1010DC00F50C050AE50AC3940240DB0509E509C3D2
:0410EC00941140C853
:0110F00022DD
:02100F008D084A
:10101100EF75F038A424C0F9740435F0750BFFF5B1
:101021000C890DE4F509E4FDAF091212F7E4F50AA4
:10103100AB0BAA0CA90D12085E5508FFD2031209C9
:10104100047401250DF50DE4350CF50C050AE50ACE
:0E105100C3940240DB0509E509C3941C40C8A6
:01105F00226E
:07143E00C2037FAE020904A6
:100FBC00C2037FAF120904900004E0FEA3E0FF7CA3
:100FCC00007D0A12089B1211F6900004E0FEA3E0CB
:100FDC00FF7C007D0A12089BAF0512122E90000AAE
:100FEC00E0FEA3E0FF7C007D0A12089B12117A90B0
:100FFC00000AE0FEA3E0FF7C007D0A12089BAF050F
:03100C0002117A54
:101339004200020000420004000042000A0000428C
:0A13490000080000C182C181C180CC
:10136E00D2AF538E7F5389F0438901758AC0758C35
:06137E0063D2A9D28C220B
:10138400538EBF53890F438910758BC0758D63C20B
:061394008FD2ABC28E22D5
:03000B00020E17CB
:100E1700C0E0C083C082900003E004F07006900039
:100E270002E004F0900002E07004A3E06432705B1B
:100E3700900009E004F07006900008E004F0D2008A
:100E4700900002E4F0A3F0900008E07004A3E064CF
:100E57003C703890000BE004F0700690000AE00444
:100E6700F0D201900008E4F0A3F0A3E07004A3E03F
:100E7700643C7017900005E004F07006900004E0F1
:100E870004F0D20290000AE4F0A3F0758AC0758CD2
:080E970063D082D083D0E03269
:1005D800020849E86480F8E933E83360110460F000
:1005E800ED33EC337009E8FCE9FDEAFEEBFF220489
:1005F80060DED3EB9FEA9EE99DE8C2E78CF0C2F784
:1006080095F0400CE8CCF8E9CDF9EACEFAEBCFFB4F
:1006180012081485D0F05804700320D5B3E804708C
:10062800075002B2D502085392D5EC0460F7E4CC27
:10063800C0E0C398F8603B94186008400DD0E0FB18
:1006480002082BE4FBFAC9FC8028E830E406E4C978
:10065800FBE4CAFCE830E305E4C9CACBFCE854076C
:100668006010F8C3E913F9EA13FAEB13FBEC13FC77
:10067800D8F130F52FC3E49CFCEF9BFFEE9AFEED1A
:1006880099FDD0E0FBEF4E4D4C701222DB030208BF
:1006980050EC2CFCEF33FFEE33FEED33FDED30E78D
:1006A800EB02082BEF2BFFEE3AFEED39FDD0E0FB15
:1006B80050130BBB0003020853ED13FDEE13FEEFBE
:0806C80013FFEC13FC02082BE8
:1006D000EC4D6011E8497017ED33EC3304600DE424
:1006E000FCFFFEFD22E933E8330470F802084912EA
:1006F000081458046009E4CC2481500628500902EB
:100700000853284003020850C0E0EB4A7044B98007
:1007100006D0E0FB02083FEF4E701CBD8008EBFFE7
:10072000EAFEE9FD80EBE98DF0A4FEE5F00207B9F1
:10073000E9CDF9EAFEEBFFEF89F0A4FCE5F0CE8904
:10074000F0A42EFFE435F0CD89F0A42DFEE435F0C1
:100750008067EF4E7005BD80D780C3EF8BF0A4ACEF
:10076000F0EE8BF0A42CFCE435F0F8EF8AF0A42C2A
:10077000E5F038FCE433CB8DF0A42CFCE5F03BF83D
:10078000EE8AF0A42CFCE5F038F8E433CF89F0A42D
:100790002CFCE5F038CF3400CE89F0A42FFFE5F033
:1007A0003EFEE433C98DF0A42EFEE5F039CD8AF08B
:1007B000A42FFFE5F03EFEE43DFD33D0E0FB500703
:1007C0000BBB000F020853EC2CFCEF33FFEE33FEA3
:0607D000ED33FD02082BD1
:1007D60075F020800E75F010800575F0087D007E9E
:1007E600007F003392D530D5031208F0EC33401069
:1007F600EF33FFEE33FEED33FDEC33FCD5F0ED22A7
:0E080600E5F0247EA2D513CC92E7CDCEFF22E2
:10081400E9D2E7C933E833F892D5EDD2E7CD33EC2A
:0708240033FC5002B2D522A3
:10082B00EC30E7100FBF000C0EBE00080DBD00042E
:10083B000BEB6014A2D5EB13FCED92E7FD2274FFDA
:10084B00FCFDFEFF22E480F8A2D574FF13FC7D8033
:03085B00E480EF47
:100D9700020A68E493A3F8E493A34003F68001F200
:100DA70008DFF48029E493A3F85407240CC8C3335D
:100DB700C4540F4420C8834004F456800146F6DF2C
:100DC700E4800B0102040810204080901339E47E70
:100DD700019360BCA3FF543F30E509541FFEE49321
:100DE700A360010ECF54C025E060A840B8E493A3E8
:100DF700FAE493A3F8E493A3C8C582C8CAC583CA13
:100E0700F0A3C8C582C8CAC583CADFE9DEE780BECA
:011353000099
:10085E00BB010689828A83E0225002E722BBFE0298
:09086E00E32289828A83E49322CB
:10087700BB010689828A83F0225002F722BBFE0160
:02088700F3225A
:10088900EF8DF0A4A8F0CF8CF0A428CE8DF0A42E83
:02089900FE223D
:10089B00BC000BBE0029EF8DF084FFADF022E4CC41
:1008AB00F875F008EF2FFFEE33FEEC33FCEE9DEC0A
:1008BB00984005FCEE9DFE0FD5F0E9E4CEFD22ED50
:1008CB00F8F5F0EE8420D21CFEADF075F008EF2F9A
:1008DB00FFED33FD4007985006D5F0F222C398FD8B
:0508EB000FD5F0EA2228
:0E08F000C3E49FFFE49EFEE49DFDE49CFC2219
:00000001FF
