:03000000020E1ECF
:0C0E1E00787FE4F6D8FD758131020E6586
:101438007C5D7DC01208C17C2E7DE01208D3D3EFFD
:0F1448009400EE9400400800EF1F70F21E80EF3A
:011457002272
:06156B0000007F1BDFFE03
:011571002257
:101475007C64EF4E60131CEC60087D0A1DED60F680
:0914850080FAEF1F70EC1E80E9F3
:01148E00223B
:09156200D2A5D2A4C2A4C2A522A4
:07157200D2A5C2A4D2A422FD
:02000E008F2E33
:10001000E4F52FF52FE52EC4131313540124FF929A
:10002000A4E52E25E0F52E12156BD2A512156BC294
:10003000A512156B052FE52FC3940840D8D2A4D282
:01004000A51A
:01004100229C
:1015260030A40D051FE51FD3941E40F4C2A580F01C
:011536002292
:0E154800C2A5D2A4D2A512156BC2A502156BC6
:1013C400D2A412156BE4F530D2A512156BE53125C4
:1013D400E0F531A2A4E433423112156BC2A5121513
:0C13E4006B0530E530C3940840DEAF31EB
:0113F00022DA
:10139400E4FFD2A4FE0000C2A50000D2A50000EF25
:1013A40025E0FF30A4010F00000EBE08E80000C2D3
:0F13B400A50000C2A40000D2A50000C2A5000041
:0113C3002207
:06093600120896FFD20436
:10093C002004030209EF90FE817401F090FE82E026
:10094C0030E6F990FE82E054BFF090FE867478F0A9
:10095C0090FE817402F090FE82E030E6F990FE8207
:10096C00E054BFF090FE817403F090FE82E030E61C
:10097C00F990FE82E054BFF090FE867440F090FE39
:10098C00817402F090FE82E030E6F990FE82E05431
:10099C00BFF090FE817403F090FE82E030E6F99097
:1009AC00FE82E054BFF090FE86EFF090FE81740260
:1009BC00F090FE82E030E6F990FE82E054BFF090B9
:1009CC00FE817403F090FE82E030E6F990FE82E046
:1009DC0054BFF090FE817406F090FE82E030E6F990
:1009EC00020A9890FE817401F090FE82E030E6F9E4
:1009FC0090FE82E054BFF090FE867478F090FE81F9
:100A0C007402F090FE82E030E6F990FE82E054BF72
:100A1C00F090FE817403F090FE82E030E6F990FED7
:100A2C0082E054BFF090FE86E4F090FE817402F0F8
:100A3C0090FE82E030E6F990FE82E054BFF090FE2A
:100A4C00817403F090FE82E030E6F990FE82E0546F
:100A5C00BFF090FE86EFF090FE817402F090FE8263
:100A6C00E030E6F990FE82E054BFF090FE81740312
:100A7C00F090FE82E030E6F990FE82E054BFF090F8
:100A8C00FE817406F090FE82E030E6F990FE82E082
:040A9C0054BFF02231
:10141600AE07ED24B0FFC20412093CEE54F0C454EA
:101426000F4410FFC20412093CEE540FFFC204021F
:02143600093C6F
:1014D500C2047F8D12093CC2047F1412093CC20468
:0514E5007FAF02093C8D
:1014EA00C2047F8012093CC2047F1012093CC20464
:0514FA007FAE02093C79
:1014FF00E4FEE4FDD204E4FF12093C0DBD08F50E35
:03150F00BE80EFAC
:0115120022B6
:100D6A00121513C2047FAE12093CC2047F40120955
:100D7A003CC2047FB012093CC2047FC812093CC2BB
:100D8A00047F8112093CC2047FFF12093CC2047F1E
:100D9A00A112093CC2047FA612093CC2047FA81210
:100DAA00093CC2047F1F12093CC2047FD312093CCA
:100DBA00C204E4FF12093CC2047FD512093CC204F2
:100DCA007FF012093CC2047FD912093CC2047F2277
:100DDA0012093CC2047FDA12093CC2047F021209DA
:100DEA003CC2047FDB12093CC2047F4912093CC29F
:100DFA00047F8D12093CC2047F1412093CC2047F8D
:100E0A002012093CC2040F12093CC2047FAF120926
:040E1A003C0214FF83
:04122D008F168B1875
:10123100E4F51DF51EE519540770028000AC05ECBC
:10124100C395195029AD04AF16121416AE16EEC38C
:1012510095185017AB1AAA1BA91C1209367401253F
:0E1261001CF51CE4351BF51B0E80E30C80D140
:01126F00225C
:080FBC008F0B8D0C8A0D8B0ECA
:100FC400E4F514F515C3E515950EE514950D503BA0
:100FD400E50B2515FFAD0C121416E4FDFCC3ED95CD
:100FE40010EC950F501BAB11AA12A91312093674F9
:100FF400012513F513E43512F5120DBD00010C8023
:0B100400DC0515E51570BE051480BA70
:01100F0022BE
:100CB30090FE817401F090FE82E030E6F990FE82AE
:100CC300E054BFF090FE8674AEF090FE817402F0A3
:100CD30090FE82E030E6F990FE82E054BFF0E4F04B
:100CE30090FE817405F090FE82E030E6F990FE827A
:100CF300E054BFF090FE86EFF090FE817402F09016
:100D0300FE82E030E6F990FE82E054BFF0E4F0901A
:100D1300FE817405F090FE82E030E6F990FE82E0F9
:100D230054BFF090FE86EDF090FE817402F090FEC9
:100D330082E030E6F990FE82E054BFF0E4F090FEEA
:100D4300817405F090FE82E030E6F990FE82E05473
:100D5300BFF090FE817406F090FE82E030E6F990D9
:070D6300FE82E054BFF02204
:100BCA0090FE817401F090FE82E030E6F990FE8298
:100BDA00E054BFF090FE8674AEF090FE817402F08D
:100BEA0090FE82E030E6F990FE82E054BFF0E4F035
:100BFA0090FE817405F090FE82E030E6F990FE8264
:100C0A00E054BFF090FE86EFF090FE817402F090FF
:100C1A00FE82E030E6F990FE82E054BFF0E4F09004
:100C2A00FE817405F090FE82E030E6F990FE82E0E3
:100C3A0054BFF090FE817401F090FE82E030E6F934
:100C4A0090FE82E054BFF090FE8674AFF090FE8171
:100C5A007402F090FE82E030E6F990FE82E054BF22
:100C6A00F0E4F090FE817405F090FE82E030E6F93F
:100C7A0090FE82E054BFF012148F90FE827401F04D
:100C8A0090FE817405F090FE82E030E6F990FE82D3
:100C9A00E054BFF090FE817406F090FE82E030E6E8
:080CAA00F990FE82E054BFF056
:010CB200221F
:0C155600121595EF64116002C322D3222D
:10153700E4FD7F04120CB37F02120CB37F05020C8B
:01154700B3F0
:061595007FFF120BCA22C9
:071579007D087F06020CB3A0
:1011E7007F16120BCA8F297F17120BCAAC07EC1296
:1011F70008188F2D8E2C8D2B8C2AE4FFFE7D807C8A
:101207003DAB2DAA2CA92BA82A120708C004C0059C
:10121700C006C007AC29E4120818D003D002D001D9
:05122700D000120617C3
:01122C00229F
:100AA0008B268A27892890FE817401F090FE82E0CF
:100AB00030E6F990FE82E054BFF090FE8674AEF00E
:100AC00090FE817402F090FE82E030E6F990FE82A2
:100AD000E054BFF0E4F090FE817405F090FE82E0F7
:100AE00030E6F990FE82E054BFF090FE86EFF09081
:100AF000FE817402F090FE82E030E6F990FE82E022
:100B000054BFF0E4F090FE817405F090FE82E03076
:100B1000E6F990FE82E054BFF090FE817401F090FF
:100B2000FE82E030E6F990FE82E054BFF090FE864F
:100B300074AFF090FE817402F090FE82E030E6F92E
:100B400090FE82E054BFF0E4F090FE817405F090D6
:100B5000FE82E030E6F990FE82E054BFF015258079
:100B600020AF251525EF603390FE82E4F090FE81E2
:100B70007405F090FE82E030E6F990FE82E054BF0A
:100B8000F012148FAB26AA27A928EF1208AF740120
:100B90002528F528E43527F52780C690FE827401C4
:100BA000F090FE817405F090FE82E030E6F990FE50
:100BB00082E054BFF090FE817406F090FE82E03037
:090BC000E6F990FE82E054BFF05A
:010BC9002209
:071580007D5F7F07020CB341
:10148F0090FE817404F090FE82E030E6F990FE82C7
:0A149F00E054BFF090FE87E0FF224A
:10151300E4FFFE000000000FBF00010EBE0BF4BF8E
:02152300B8F11D
:0115250022A3
:1012EC00C1035000020000000000000000000000DC
:0D12FC000000000000410001004100000062
:030043000211089F
:10110800C0E0C083C082C0D075D000C006C007E56B
:101118009A30E105539AFDC203E59A30E023539AC9
:10112800FE900001E0FF04F0EF3395E0FE74022F1B
:10113800F58274003EF583E59BF0900001E0540FC2
:0E114800F0D007D006D0D0D082D083D0E032D5
:10145800759A5075D7CC75D6FF438E14E490000169
:0D146800F0900000F0C20375AF01D2AF227A
:080003002003FDD2038F9B22B4
:1013F1008B088A09890AAB08AA09A90A120896600A
:1014010013050AE50A7002050914F9120896FF127C
:05141100000380E2224F
:07158700556172744F6B0007
:100EAA0075BAB090FE8074E0F090FE82E4F0120D04
:100EBA006AE4FF121324E4FF12135C7FFF12115637
:100ECA00E4FF121270E4FF1212AE7DFF7F041210CB
:100EDA00B77FFF1211A090001E7401F07D0B7F06F0
:100EEA00120CB37DF07F01120CB37D337F09120C13
:100EFA00B31214587BFF7A1579871213F190000107
:100F0A00E0FF900000E06F60F4E0FF04F0EF33953B
:100F1A00E0FE74022FF58274003EF583E0FF1200B2
:0A0F2A0003900000E0540FF080D3A4
:100046000000000000000000FCFFFF3FFCFFFF3F38
:10005600FCFFFF3FFCFFFF3F3C00003C3C00003C38
:100066003C00003C3C00003C3C00003C3C00003CAA
:100076003C00003C3C00003CFCFFFF3FFCFFFF3F18
:10008600FCFFFF3FFCFFFF3F0000000000000000F8
:10009600000000000000000000000000000000005A
:1000A600000000000000000000000000000000004A
:1000B600000000000000000000000000000000003A
:1000C6000000000000000000FCFFFF3FFCFFFF3FB8
:1000D600FCFFFF3FFCFFFF3F0000000000000000A8
:1000E60000000000000000003CC0FF3F3CC0FF3F96
:1000F6003CC0FF3F3CC0FF3F3CC0033C3CC0033C10
:100106003CC0033C3CC0033C3CC0033C3CC0033CFD
:100116003CC0033C3CC0033CFCFF033CFCFF033CEF
:10012600FCFF033CFCFF033C000000000000000055
:1001360000000000000000003CC0033C3CC0033C43
:100146003CC0033C3CC0033C3CC0033C3CC0033CBD
:100156003CC0033C3CC0033C3CC0033C3CC0033CAD
:100166003CC0033C3CC0033CFCFFFF3FFCFFFF3FA1
:10017600FCFFFF3FFCFFFF3F000000000000000007
:100186000000000000000000FCFF0300FCFF03006D
:10019600FCFF0300FCFF030000C0030000C00300D7
:1001A60000C0030000C0030000C0030000C003003D
:1001B60000C0030000C00300FCFFFF3FFCFFFF3F41
:1001C600FCFFFF3FFCFFFF3F0000000000000000B7
:1001D6000000000000000000FCFF033CFCFF033CA5
:1001E600FCFF033CFCFF033C3CC0033C3CC0033C1F
:1001F6003CC0033C3CC0033C3CC0033C3CC0033C0D
:100206003CC0033C3CC0033C3CC0FF3F3CC0FF3FFE
:100216003CC0FF3F3CC0FF3F000000000000000064
:100226000000000000000000FCFFFF3FFCFFFF3F56
:10023600FCFFFF3FFCFFFF3F3CC0033C3CC0033CD0
:100246003CC0033C3CC0033C3CC0033C3CC0033CBC
:100256003CC0033C3CC0033C3CC0FF3F3CC0FF3FAE
:100266003CC0FF3F3CC0FF3F000000000000000014
:1002760000000000000000003C0000003C00000000
:100286003C0000003C0000003C0000003C00000078
:100296003C0000003C0000003C0000003C00000068
:1002A6003C0000003C000000FCFFFF3FFCFFFF3F5E
:1002B600FCFFFF3FFCFFFF3F0000000000000000C6
:1002C6000000000000000000FCFFFF3FFCFFFF3FB6
:1002D600FCFFFF3FFCFFFF3F3CC0033C3CC0033C30
:1002E6003CC0033C3CC0033C3CC0033C3CC0033C1C
:1002F6003CC0033C3CC0033CFCFFFF3FFCFFFF3F10
:10030600FCFFFF3FFCFFFF3F000000000000000075
:100316000000000000000000FCFF033CFCFF033C63
:10032600FCFF033CFCFF033C3CC0033C3CC0033CDD
:100336003CC0033C3CC0033C3CC0033C3CC0033CCB
:100346003CC0033C3CC0033CFCFFFF3FFCFFFF3FBF
:10035600FCFFFF3FFCFFFF3F000000000000000025
:100366000FF00FF00FF00FF0FEFF3FFEFF3FFEFF16
:100376003F0E00380E00380E00380E00380E0038DA
:100386000E0038FEFF3FFEFF3FFEFF3F000000006D
:100396000000000000000000000000000000000057
:1003A60000000000000000FEFF3FFEFF3FFEFF3F93
:1003B6000EFC3F0EFC3F0EFC3F0E1C380E1C380E8A
:1003C6001C380E1C380E1C380E1C38FE1F38FE1F3B
:1003D60038FE1F380E1C380E1C380E1C380E1C3802
:1003E6000E1C380E1C380E1C380E1C380E1C38FE1F
:1003F600FF3FFEFF3FFEFF3FFE1F00FE1F00FE1FEA
:1004060000001C00001C00001C00001C00001C005A
:10041600001C00FEFF3FFEFF3FFEFF3FFE1F38FEB3
:100426001F38FE1F380E1C380E1C380E1C380E1CCA
:10043600380E1C380E1C380EFC3F0EFC3F0EFC3FDF
:10044600FEFF3FFEFF3FFEFF3F0E1C380E1C380E20
:100456001C380E1C380E1C380E1C380EFC3F0EFCC9
:100466003F0EFC3F0E00000E00000E00000E0000C6
:100476000E00000E00000E00000E00000E0000FE32
:10048600FF3FFEFF3FFEFF3FFEFF3FFEFF3FFEFF3B
:100496003F0E1C380E1C380E1C380E1C380E1C382D
:1004A6000E1C38FEFF3FFEFF3FFEFF3FFE1F38FEDD
:1004B6001F38FE1F380E1C380E1C380E1C380E1C3A
:1004C600380E1C380E1C38FEFF3FFEFF3FFEFF3F76
:1004D6000000000000000000200840048002F01F19
:1004E6001011A00A400400000000000000000000F7
:1004F600000000000000FC030402040204020402DF
:1005060004020402040204020402040204020402B5
:100516000402FC03F00000000000000000000000E0
:100526000000000000000000000000000000FC03C6
:100536000402F402F402F4020402040204020402B5
:1005460004020402040204020402FC03F000000098
:100556000000000000000000000000000000000095
:10056600000000000000FC030402F402F402F4029E
:100576000402F402F402F402040204020402040275
:100586000402FC03F0000000000000000000000070
:100596000000000000000000000000000000FC0356
:1005A6000402F402F402F4020402F402F402F40275
:1005B6000402F402F402F4020402FC03F000000058
:1005C6000000000000000000000000000000000025
:1005D600000000000000FC030402040214023402BE
:1005E6006402C402F40234026402C40284020402F5
:1005F6000402FC03F0000000000000000000000000
:0A06060000000000000000000000EA
:061010007B147A00E4FDF0
:081016008F0B8D0C8A0D8B0E6F
:10101E00E4F511F512C3E512950EE511950D503557
:10102E00E50B2512FFAD0C121416E4F513F514C3DF
:10103E00E5149510E513950F5011D204E4FF120933
:10104E003C0514E51470E8051380E40512E51270F2
:05105E00C4051180C073
:01106300226A
:10132400EF75F050A42446F9740035F07508FFF504
:1013340009890A750F007510047F22121010750FA9
:1013440000751004850811850912850A137B147A27
:0813540000E4FD7F22020FBC42
:10135C00EF75F050A42446F9740035F07508FFF5CC
:10136C0009890A750F007510047F37121010750F5C
:10137C0000751004850811850912850A137B147AEF
:08138C0000E4FD7F37020FBCF5
:10127000EF75F050A42446F9740035F07508FFF5B9
:1012800009890A750F007510047B147A00E4FD7F4C
:1012900055121016750F0075100485081185091276
:0E12A000850A137B147A00E4FD7F55020FBC13
:1012AE00EF75F050A42446F9740035F07508FFF57B
:1012BE0009890A750F007510047B147A00E4FD7F0E
:1012CE006A121016750F0075100485081185091223
:0E12DE00850A137B147A00E4FD7F6A020FBCC0
:021156008F0800
:10115800750BFF750C03750D66E4F509E509244D5B
:10116800FF7D01121416E4F50AAB0BAA0CA90D12A7
:1011780008965508FFD20412093C7401250DF50D97
:10118800E4350CF50C050AE50AC3940240DB0509B1
:07119800E509C3940440C502
:01119F00222D
:0211A0008F08B6
:1011A200750BFF750C04750DD6E4F5097D02AF09C8
:1011B200121416E4F50AAB0BAA0CA90D12089655E7
:1011C20008FFD20412093C7401250DF50DE4350C1B
:1011D200F50C050AE50AC3940240DB0509E509C3DB
:0411E200941140C85C
:0111E60022E6
:0210B7008D08A2
:1010B900EF75F038A424F8F9740435F0750BFFF5D1
:1010C9000C890DE4F509E4FDAF09121416E4F50ADB
:1010D900AB0BAA0CA90D1208965508FFD2041209E8
:1010E9003C7401250DF50DE4350CF50C050AE50AEE
:0E10F900C3940240DB0509E509C3941C40C8FE
:0111070022C5
:07158E00C2047FAE02093C1C
:10106400C2047FAF12093C900016E0FEA3E0FF7CAF
:10107400007D0A1208D3121324900016E0FEA3E0A8
:10108400FF7C007D0A1208D3AF0512135C90001C8C
:10109400E0FEA3E0FF7C007D0A1208D312127090D8
:1010A400001CE0FEA3E0FF7C007D0A1208D3AF051C
:0310B400021270B5
:101309004200140000420016000042001C00004286
:0A131900001A0000C182C181C180EA
:1014A900D2AF538E7F5389F0438901758AC0758CF9
:0614B90063D2A9D28C22CF
:1014BF00538EBF53890F438910758BC0758D63C2CF
:0614CF008FD2ABC28E2299
:03000B00020F34AD
:100F3400C0E0C083C082900015E004F07006900009
:100F440014E004F0900014E07004A3E06432705BD9
:100F540090001BE004F0700690001AE004F0D20048
:100F6400900014E4F0A3F090001AE07004A3E0648D
:100F74003C703890001DE004F0700690001CE00402
:100F8400F0D20190001AE4F0A3F0A3E07004A3E00F
:100F9400643C7017900017E004F07006900016E0AF
:100FA40004F0D20290001CE4F0A3F0758AC0758CA2
:080FB40063D082D083D0E0324B
:10061000020881E86480F8E933E83360110460F08F
:10062000ED33EC337009E8FCE9FDEAFEEBFF220450
:1006300060DED3EB9FEA9EE99DE8C2E78CF0C2F74B
:1006400095F0400CE8CCF8E9CDF9EACEFAEBCFFB17
:1006500012084C85D0F05804700320D5B3E804701C
:10066000075002B2D502088B92D5EC0460F7E4CCB7
:10067000C0E0C398F8603B94186008400DD0E0FBE0
:10068000020863E4FBFAC9FC8028E830E406E4C908
:10069000FBE4CAFCE830E305E4C9CACBFCE8540734
:1006A0006010F8C3E913F9EA13FAEB13FBEC13FC3F
:1006B000D8F130F52FC3E49CFCEF9BFFEE9AFEEDE2
:1006C00099FDD0E0FBEF4E4D4C701222DB03020887
:1006D00088EC2CFCEF33FFEE33FEED33FDED30E71D
:1006E000EB020863EF2BFFEE3AFEED39FDD0E0FBA5
:1006F00050130BBB000302088BED13FDEE13FEEF4E
:0807000013FFEC13FC02086377
:10070800EC4D6011E8497017ED33EC3304600DE4EB
:10071800FCFFFEFD22E933E8330470F80208811279
:10072800084C58046009E4CC24815006285009027A
:10073800088B284003020888C0E0EB4A7044B9805F
:1007480006D0E0FB020877EF4E701CBD8008EBFF77
:10075800EAFEE9FD80EBE98DF0A4FEE5F00207F181
:10076800E9CDF9EAFEEBFFEF89F0A4FCE5F0CE89CC
:10077800F0A42EFFE435F0CD89F0A42DFEE435F089
:100788008067EF4E7005BD80D780C3EF8BF0A4ACB7
:10079800F0EE8BF0A42CFCE435F0F8EF8AF0A42CF2
:1007A800E5F038FCE433CB8DF0A42CFCE5F03BF805
:1007B800EE8AF0A42CFCE5F038F8E433CF89F0A4F5
:1007C8002CFCE5F038CF3400CE89F0A42FFFE5F0FB
:1007D8003EFEE433C98DF0A42EFEE5F039CD8AF053
:1007E800A42FFFE5F03EFEE43DFD33D0E0FB5007CB
:1007F8000BBB000F02088BEC2CFCEF33FFEE33FE33
:06080800ED33FD02086360
:10080E0075F020800E75F010800575F0087D007E65
:10081E00007F003392D530D503120928EC334010F7
:10082E00EF33FFEE33FEED33FDEC33FCD5F0ED226E
:0E083E00E5F0247EA2D513CC92E7CDCEFF22AA
:10084C00E9D2E7C933E833F892D5EDD2E7CD33ECF2
:07085C0033FC5002B2D5226B
:10086300EC30E7100FBF000C0EBE00080DBD0004F6
:100873000BEB6014A2D5EB13FCED92E7FD2274FFA2
:10088300FCFDFEFF22E480F8A2D574FF13FC7D80FB
:03089300E480EF0F
:100E2A00020EAAE493A3F8E493A34003F68001F226
:100E3A0008DFF48029E493A3F85407240CC8C333C9
:100E4A00C4540F4420C8834004F456800146F6DF98
:100E5A00E4800B01020408102040809012ECE47E2A
:100E6A00019360BCA3FF543F30E509541FFEE4938D
:100E7A00A360010ECF54C025E060A840B8E493A354
:100E8A00FAE493A3F8E493A3C8C582C8CAC583CA7F
:100E9A00F0A3C8C582C8CAC583CADFE9DEE780BE37
:0113230000C9
:10089600BB010689828A83E0225002E722BBFE0260
:0908A600E32289828A83E4932293
:1008AF00BB010689828A83F0225002F722BBFE0128
:0208BF00F32222
:1008C100EF8DF0A4A8F0CF8CF0A428CE8DF0A42E4B
:0208D100FE2205
:1008D300BC000BBE0029EF8DF084FFADF022E4CC09
:1008E300F875F008EF2FFFEE33FEEC33FCEE9DECD2
:1008F300984005FCEE9DFE0FD5F0E9E4CEFD22ED18
:10090300F8F5F0EE8420D21CFEADF075F008EF2F61
:10091300FFED33FD4007985006D5F0F222C398FD52
:050923000FD5F0EA22EF
:0E092800C3E49FFFE49EFEE49DFDE49CFC22E0
:00000001FF
