:030000000212F7F2
:0C12F700787FE4F6D8FD75815202133EAA
:1019BF007C5D7DC0120BB77C2E7DE0120BC9D3EF7F
:0F19CF009400EE9400400800EF1F70F21E80EFAE
:0119DE0022E6
:061B7A0000007F1BDFFEEE
:011B80002242
:1019FA007C64EF4E60131CEC60087D0A1DED60F6F6
:091A0A0080FAEF1F70EC1E80E968
:011A130022B0
:091B7100D2A5D2A4C2A4C2A5228F
:071B8100D2A5C2A4D2A422E8
:02000E008F4B16
:10001000E4F54CF54CE54BC4131313540124FF9243
:10002000A4E54B25E0F54B121B7AD2A5121B7AC230
:10003000A5121B7A054CE54CC3940840D8D2A4D233
:01004000A51A
:01004100229C
:101AEF0030A40D054FE54FD3941E40F4C2A580F0EE
:011AFF0022C4
:0E1B4E00C2A5D2A4D2A5121B7AC2A5021B7A90
:1018FD00D2A4121B7AE4F54DD2A5121B7AE54E2522
:10190D00E0F54EA2A4E433424E121B7AC2A5121B7F
:0C191D007A054DE54DC3940840DEAF4E46
:01192900229B
:1018CD00E4FFD2A4FE0000C2A50000D2A50000EFE7
:1018DD0025E0FF30A4010F00000EBE08E80000C295
:0F18ED00A50000C2A40000D2A50000C2A5000003
:0118FC0022C9
:060C4B00120B8CFFD20425
:100C5100200403020D0490FE817401F090FE82E0F5
:100C610030E6F990FE82E054BFF090FE867478F091
:100C710090FE817402F090FE82E030E6F990FE82EF
:100C8100E054BFF090FE817403F090FE82E030E604
:100C9100F990FE82E054BFF090FE867440F090FE21
:100CA100817402F090FE82E030E6F990FE82E05419
:100CB100BFF090FE817403F090FE82E030E6F9907F
:100CC100FE82E054BFF090FE86EFF090FE81740248
:100CD100F090FE82E030E6F990FE82E054BFF090A1
:100CE100FE817403F090FE82E030E6F990FE82E02E
:100CF10054BFF090FE817406F090FE82E030E6F978
:100D0100020DAD90FE817401F090FE82E030E6F9B3
:100D110090FE82E054BFF090FE867478F090FE81E0
:100D21007402F090FE82E030E6F990FE82E054BF5A
:100D3100F090FE817403F090FE82E030E6F990FEBF
:100D410082E054BFF090FE86E4F090FE817402F0E0
:100D510090FE82E030E6F990FE82E054BFF090FE12
:100D6100817403F090FE82E030E6F990FE82E05457
:100D7100BFF090FE86EFF090FE817402F090FE824B
:100D8100E030E6F990FE82E054BFF090FE817403FA
:100D9100F090FE82E030E6F990FE82E054BFF090E0
:100DA100FE817406F090FE82E030E6F990FE82E06A
:040DB10054BFF02219
:10199D00AE07ED24B0FFC204120C51EE54F0C45446
:1019AD000F4410FFC204120C51EE540FFFC204027B
:0219BD000C51CB
:101A8C00C2047F8D120C51C2047F14120C51C2047B
:051A9C007FAF020C51B8
:101AA100C2047F80120C51C2047F10120C51C20477
:051AB1007FAE020C51A4
:101AB600E4FEE4FDD204E4FF120C510DBD08F50E60
:031AC600BE80EFF0
:011AC90022FA
:10119A00121ACAC2047FAE120C51C2047F40120C4A
:1011AA0051C2047FB0120C51C2047FC8120C51C242
:1011BA00047F81120C51C2047FFF120C51C2047FBA
:1011CA00A1120C51C2047FA6120C51C2047FA812AC
:1011DA000C51C2047F1F120C51C2047FD3120C514E
:1011EA00C204E4FF120C51C2047FD5120C51C2048E
:1011FA007FF0120C51C2047FD9120C51C2047F2213
:10120A00120C51C2047FDA120C51C2047F02120C72
:10121A0051C2047FDB120C51C2047F49120C51C225
:10122A00047F8D120C51C2047F14120C51C2047F28
:10123A0020120C51C2040F120C51C2047FAF120CBF
:04124A0051021AB67D
:0416E7008F178B19B5
:1016EB00E4F51EF51FE51A540770028000AC05ECFB
:1016FB00C3951A5029AD04AF1712199DAE17EEC33F
:10170B0095195017AB1BAA1CA91D120C4B74012564
:0E171B001DF51DE4351CF51C0E80E30C80D17D
:01172900229D
:081476008F0C8D0D8A0E8B0F07
:10147E00E4F515F516C3E516950FE515950E503BDB
:10148E00E50C2516FFAD0D12199DE4FDFCC3ED957F
:10149E0011EC9510501BAB12AA13A914120C4B741D
:1014AE00012514F514E43513F5130DBD00010C8060
:0B14BE00DC0516E51670BE051580BAAF
:0114C9002200
:1010E30090FE817401F090FE82E030E6F990FE827A
:1010F300E054BFF090FE8674AEF090FE817402F06F
:1011030090FE82E030E6F990FE82E054BFF0E4F016
:1011130090FE817405F090FE82E030E6F990FE8245
:10112300E054BFF090FE86EFF090FE817402F090E1
:10113300FE82E030E6F990FE82E054BFF0E4F090E6
:10114300FE817405F090FE82E030E6F990FE82E0C5
:1011530054BFF090FE86EDF090FE817402F090FE95
:1011630082E030E6F990FE82E054BFF0E4F090FEB6
:10117300817405F090FE82E030E6F990FE82E0543F
:10118300BFF090FE817406F090FE82E030E6F990A5
:07119300FE82E054BFF022D0
:100FFA0090FE817401F090FE82E030E6F990FE8264
:10100A00E054BFF090FE8674AEF090FE817402F058
:10101A0090FE82E030E6F990FE82E054BFF0E4F000
:10102A0090FE817405F090FE82E030E6F990FE822F
:10103A00E054BFF090FE86EFF090FE817402F090CB
:10104A00FE82E030E6F990FE82E054BFF0E4F090D0
:10105A00FE817405F090FE82E030E6F990FE82E0AF
:10106A0054BFF090FE817401F090FE82E030E6F900
:10107A0090FE82E054BFF090FE8674AFF090FE813D
:10108A007402F090FE82E030E6F990FE82E054BFEE
:10109A00F0E4F090FE817405F090FE82E030E6F90B
:1010AA0090FE82E054BFF0121A2E90FE827401F074
:1010BA0090FE817405F090FE82E030E6F990FE829F
:1010CA00E054BFF090FE817406F090FE82E030E6B4
:0810DA00F990FE82E054BFF022
:0110E20022EB
:101B0000E4FD7F041210E37F021210E37F05021050
:011B1000E3F1
:061B96007FFF120FFA228E
:0F1B21007F06120FFAAD074305087F060210E397
:101B11007F06120FFAEF20E3047F0180027F00228B
:1016A1007F16120FFA8F397F17120FFAAC07EC125F
:1016B1000A188F3D8E3C8D3B8C3AE4FFFE7D807C89
:1016C1003DAB3DAA3CA93BA83A120908C004C0059C
:1016D100C006C007AC39E4120A18D003D002D00109
:0516E100D00012081703
:0116E60022E1
:100DB5008B308A31893290FE817401F090FE82E099
:100DC50030E6F990FE82E054BFF090FE8674AEF0F6
:100DD50090FE817402F090FE82E030E6F990FE828A
:100DE500E054BFF0E4F090FE817405F090FE82E0DF
:100DF50030E6F990FE82E054BFF090FE86EFF09069
:100E0500FE817402F090FE82E030E6F990FE82E009
:100E150054BFF0E4F090FE817405F090FE82E0305E
:100E2500E6F990FE82E054BFF090FE817401F090E7
:100E3500FE82E030E6F990FE82E054BFF090FE8637
:100E450074AFF090FE817402F090FE82E030E6F916
:100E550090FE82E054BFF0E4F090FE817405F090BE
:100E6500FE82E030E6F990FE82E054BFF0152F8057
:100E750020AF2F152FEF603390FE82E4F090FE81B6
:100E85007405F090FE82E030E6F990FE82E054BFF2
:100E9500F0121A2EAB30AA31A932EF120BA574014C
:100EA5002532F532E43531F53180C690FE82740184
:100EB500F090FE817405F090FE82E030E6F990FE38
:100EC50082E054BFF090FE817406F090FE82E0301F
:090ED500E6F990FE82E054BFF042
:010EDE0022F1
:10192A0074966411441B60037F00227F02121B8895
:10193A007F03121ADD7F01121A487D0F7F0F121BD7
:09194A005C7F01121A147F0122D6
:071B8800AD077F060210E328
:021ADD008F5028
:101ADF007F07120FFAEF54FC4550FD7F070210E30A
:021A48008F51BC
:101A4A007F07120FFAE55125E025E0FEEF54E34E39
:061A5A00FD7F070210E30E
:0B1B5C00EDC454F04FFD7F090210E3C0
:021A14008F52EF
:101A16007F07120FFAE5526005EF44408003EF544A
:071A2600BFFD7F071210E372
:011A2D002296
:031B9C0002124EE4
:0C176B008B218A228923E5384537602F46
:1017770012172A78277C007D007E007F04120B66F3
:10178700AB21AA22A923E5278528F0120C1EAB243A
:0F179700AA25A926E529852AF0120C1E7F01221A
:0317A6007F00229F
:10140B0074042536FDF536E43535FCF535EDB48140
:10141B000AECB40006753500753641A836AC357D3F
:10142B00017B007A0079437E007F04120B66E5385E
:10143B0064104537701E74042534FDF534E43533E0
:10144B00FCF533EDB4810AECB4000675330075344A
:10145B00417F00220538E538AE3770020537144E50
:0B146B0070068535338536347F012282
:10172A00E536FF24FCF536E535FE34FFF535AA0625
:10173A00A9077B0178477C007D007E007F04120B9D
:10174A0066C3E5369441E535940050067535007553
:10175A00367DE5381538700215377B007A007947EF
:01176A00225C
:10124E007F04120FFAC0077F02120FFAAE07D00703
:10125E00C3EE9F540F900040F070030212F67B0114
:10126E007A007900E025E025E0F52F7F05120DB517
:0E127E00E4F53E900040E0FFE53EC39F506A5D
:10128C00E53E25E025E02400F582E43400F583E01A
:10129C00FEE53E25E025E02401F582E43400F583EB
:1012AC00E0FDEEF53FEDF540E53E25E025E02402BE
:1012BC00F582E43400F583E0FEE53E25E025E024EC
:1012CC0003F582E43400F583E0FDEEF541EDF542E3
:1012DC0078437C007D007B007A00793F7E007F04A0
:0612EC00120B6612140B48
:0412F200053E808BAA
:0112F60022D5
:0F1B30007F06120FFAAD074305807F060210E310
:0F1B3F007F06120FFAAD0753057F7F060210E3F2
:101A2E0090FE817404F090FE82E030E6F990FE8222
:0A1A3E00E054BFF090FE87E0FF22A5
:101ACA00E4FFFE000000000FBF00010EBE0BF4BFD2
:021ADA00B8F161
:011ADC0022E7
:10182500C10350008300000000000000000000001C
:0D1835000000000000410082004100810021
:030043000215C2E1
:1015C200C0E0C083C082C0D075D000C006C007E5AD
:1015D2009A30E105539AFDC203E59A30E023539A0B
:1015E200FE900082E0FF04F0EF3395E0FE74832F5B
:1015F200F58274003EF583E59BF0900082E0540F83
:0E160200F0D007D006D0D0D082D083D0E03216
:1019DF00759A5075D7CC75D6FF438E14E49000825C
:0B19EF00F0900081F0C20375AF0122F0
:080003002003FDD2038F9B22B4
:101953008B098A0A890BAB09AA0AA90B120B8C60A3
:1019630013050BE50B7002050A14F9120B8CFF1219
:05197300000380E222E8
:0A1B670053746172746564210A0072
:100EDF00E4F50875BAB090FE8074E0F090FE82E4FD
:100EEF00F0121A6090009F7401F07D0B7F061210B4
:100EFF00E37DF07F011210E37D337F091210E312BF
:100F0F0019DF121A6012119AE4FF12185D7FFF1297
:100F1F001610E4FF1217A97DFF7F02121571E4FF6F
:100F2F0012165A7BFF7A1B796712195390009FE0B4
:100F3F0064016003020FE1300006FF121610C200B9
:100F4F00900095E07004A3E0641970057FFF1216FE
:100F5F001030013C90009DE0FEA3E0FF7C007D0A75
:100F6F00120BC9AF051217E790009DE0FEA3E0FF3B
:100F7F007C007D0A120BC9900093E06E7003A3E012
:100F8F006F600B900093EEF0A3EFF01217A9C20160
:100F9F00300299900097E0FEA3E0FF7C007D0A12DB
:100FAF000BC9AF05121895900097E0FEA3E0FF7CE8
:100FBF00007D0A120BC9900099E06E7003A3E06FD9
:100FCF00600B900099EEF0A3EFF012185DC20202D1
:100FDF000F3B90009FE0B4020512197880F4900047
:0B0FEF009FE064036003020F3B80F3EF
:100046000000000000000000FCFFFF3FFCFFFF3F38
:10005600FCFFFF3FFCFFFF3F3C00003C3C00003C38
:100066003C00003C3C00003C3C00003C3C00003CAA
:100076003C00003C3C00003CFCFFFF3FFCFFFF3F18
:10008600FCFFFF3FFCFFFF3F0000000000000000F8
:10009600000000000000000000000000000000005A
:1000A600000000000000000000000000000000004A
:1000B600000000000000000000000000000000003A
:1000C6000000000000000000FCFFFF3FFCFFFF3FB8
:1000D600FCFFFF3FFCFFFF3F0000000000000000A8
:1000E60000000000000000003CC0FF3F3CC0FF3F96
:1000F6003CC0FF3F3CC0FF3F3CC0033C3CC0033C10
:100106003CC0033C3CC0033C3CC0033C3CC0033CFD
:100116003CC0033C3CC0033CFCFF033CFCFF033CEF
:10012600FCFF033CFCFF033C000000000000000055
:1001360000000000000000003CC0033C3CC0033C43
:100146003CC0033C3CC0033C3CC0033C3CC0033CBD
:100156003CC0033C3CC0033C3CC0033C3CC0033CAD
:100166003CC0033C3CC0033CFCFFFF3FFCFFFF3FA1
:10017600FCFFFF3FFCFFFF3F000000000000000007
:100186000000000000000000FCFF0300FCFF03006D
:10019600FCFF0300FCFF030000C0030000C00300D7
:1001A60000C0030000C0030000C0030000C003003D
:1001B60000C0030000C00300FCFFFF3FFCFFFF3F41
:1001C600FCFFFF3FFCFFFF3F0000000000000000B7
:1001D6000000000000000000FCFF033CFCFF033CA5
:1001E600FCFF033CFCFF033C3CC0033C3CC0033C1F
:1001F6003CC0033C3CC0033C3CC0033C3CC0033C0D
:100206003CC0033C3CC0033C3CC0FF3F3CC0FF3FFE
:100216003CC0FF3F3CC0FF3F000000000000000064
:100226000000000000000000FCFFFF3FFCFFFF3F56
:10023600FCFFFF3FFCFFFF3F3CC0033C3CC0033CD0
:100246003CC0033C3CC0033C3CC0033C3CC0033CBC
:100256003CC0033C3CC0033C3CC0FF3F3CC0FF3FAE
:100266003CC0FF3F3CC0FF3F000000000000000014
:1002760000000000000000003C0000003C00000000
:100286003C0000003C0000003C0000003C00000078
:100296003C0000003C0000003C0000003C00000068
:1002A6003C0000003C000000FCFFFF3FFCFFFF3F5E
:1002B600FCFFFF3FFCFFFF3F0000000000000000C6
:1002C6000000000000000000FCFFFF3FFCFFFF3FB6
:1002D600FCFFFF3FFCFFFF3F3CC0033C3CC0033C30
:1002E6003CC0033C3CC0033C3CC0033C3CC0033C1C
:1002F6003CC0033C3CC0033CFCFFFF3FFCFFFF3F10
:10030600FCFFFF3FFCFFFF3F000000000000000075
:100316000000000000000000FCFF033CFCFF033C63
:10032600FCFF033CFCFF033C3CC0033C3CC0033CDD
:100336003CC0033C3CC0033C3CC0033C3CC0033CCB
:100346003CC0033C3CC0033CFCFFFF3FFCFFFF3FBF
:10035600FCFFFF3FFCFFFF3F000000000000000025
:100366000FF00FF00FF00FF0FEFF3FFEFF3FFEFF16
:100376003F0E00380E00380E00380E00380E0038DA
:100386000E0038FEFF3FFEFF3FFEFF3F000000006D
:100396000000000000000000000000000000000057
:1003A60000000000000000FEFF3FFEFF3FFEFF3F93
:1003B6000EFC3F0EFC3F0EFC3F0E1C380E1C380E8A
:1003C6001C380E1C380E1C380E1C38FE1F38FE1F3B
:1003D60038FE1F380E1C380E1C380E1C380E1C3802
:1003E6000E1C380E1C380E1C380E1C380E1C38FE1F
:1003F600FF3FFEFF3FFEFF3FFE1F00FE1F00FE1FEA
:1004060000001C00001C00001C00001C00001C005A
:10041600001C00FEFF3FFEFF3FFEFF3FFE1F38FEB3
:100426001F38FE1F380E1C380E1C380E1C380E1CCA
:10043600380E1C380E1C380EFC3F0EFC3F0EFC3FDF
:10044600FEFF3FFEFF3FFEFF3F0E1C380E1C380E20
:100456001C380E1C380E1C380E1C380EFC3F0EFCC9
:100466003F0EFC3F0E00000E00000E00000E0000C6
:100476000E00000E00000E00000E00000E0000FE32
:10048600FF3FFEFF3FFEFF3FFEFF3FFEFF3FFEFF3B
:100496003F0E1C380E1C380E1C380E1C380E1C382D
:1004A6000E1C38FEFF3FFEFF3FFEFF3FFE1F38FEDD
:1004B6001F38FE1F380E1C380E1C380E1C380E1C3A
:1004C600380E1C380E1C38FEFF3FFEFF3FFEFF3F76
:1004D6000000000000000000200840048002F01F19
:1004E6001011A00A400400000000000000000000F7
:1004F600000000000000FC030402040204020402DF
:1005060004020402040204020402040204020402B5
:100516000402FC03F00000000000000000000000E0
:100526000000000000000000000000000000FC03C6
:100536000402F402F402F4020402040204020402B5
:1005460004020402040204020402FC03F000000098
:100556000000000000000000000000000000000095
:10056600000000000000FC030402F402F402F4029E
:100576000402F402F402F402040204020402040275
:100586000402FC03F0000000000000000000000070
:100596000000000000000000000000000000FC0356
:1005A6000402F402F402F4020402F402F402F40275
:1005B6000402F402F402F4020402FC03F000000058
:1005C6000000000000000000000000000000000025
:1005D600000000000000FC030402040214023402BE
:1005E6006402C402F40234026402C40284020402F5
:1005F6000402FC03F0000000000000000000000000
:1006060000000000000000000000000000000000E4
:10061600000000C0000000C0000000C0000000C0D4
:10062600000000C0000000C0000000C0000000C0C4
:10063600000000F00000003C0000000F00008003F6
:10064600000000FF000000F01F0000807F00000097
:10065600F0010000C0000000780000801F0000C00C
:10066600010000C0000000C0000000C0000000C083
:100676000000E0C00000F0C10000F0C30000E0C7C9
:100686000000E0C70000F0C30000F0C10000E00079
:100696000000000000000000000000000000000054
:1006A6000000000000000000000000000000000044
:1006B6000000000000000000000000000000000034
:1006C6000000000000000000000000000000000024
:1006D6000000000000000000000000000000000014
:1006E6000000000000000000000000000000000004
:1006F60000000000000000000000000000000000F4
:1007060000000000000000000000000000000000E3
:1007160000000000000000000000000000000000D3
:1007260000000000000000000000000000000000C3
:1007360000000000000000000000000000000000B3
:1007460000000000000000000000000000000000A3
:10075600000000000000000000000000000000FC97
:100766007F0000FC7F0000FC7F00009C7300009C63
:100776007300009C730000FC7F0000F83E000070D0
:100786001C0000000000000000000000000000FC4B
:100796007F0000FC7F0000FC7F00009C0300009CA3
:1007A6000300009C030000FC030000FC030000FCA7
:1007B600030000000000000000000000000000FC34
:1007C6007F0000FC7F0000FC7F000078000000F046
:1007D600000000F000000078000000FC7F0000FC34
:1007E6007F0000FC7F000000000000000000000009
:1007F60000000000000000000000000000000000F3
:0A08060000000000000000000000E8
:0614CA007B147A00E4FD32
:0814D0008F0C8D0D8A0E8B0FAD
:1014D800E4F512F513C3E513950FE512950E503593
:1014E800E50C2513FFAD0D12199DE4F514F515C390
:1014F800E5159511E51495105011D204E4FF120C6E
:10150800510515E51570E8051480E40513E5137019
:05151800C4051280C0B3
:01151D0022AB
:10185D00EF75F050A42446F9740035F07509FFF5C5
:10186D000A890B7510007511047F221214CA7510A8
:10187D0000751104850912850A13850B147B147AE2
:08188D0000E4FD7F2202147645
:10189500EF75F050A42446F9740035F07509FFF58D
:1018A5000A890B7510007511047F371214CA75105B
:1018B50000751104850912850A13850B147B147AAA
:0818C50000E4FD7F37021476F8
:1017A900EF75F050A42446F9740035F07509FFF57A
:1017B9000A890B7510007511047B147A00E4FD7F0A
:1017C900551214D0751000751104850912850A1374
:0E17D900850B147B147A00E4FD7F5502147614
:1017E700EF75F050A42446F9740035F07509FFF53C
:1017F7000A890B7510007511047B147A00E4FD7FCC
:101807006A1214D0751000751104850912850A1320
:0E181700850B147B147A00E4FD7F6A021476C0
:021610008F0940
:10161200750CFF750D03750E66E4F50AE50A244D97
:10162200FF7D0112199DE4F50BAB0CAA0DA90E1258
:101632000B8C5509FFD204120C517401250EF50EC4
:10164200E4350DF50D050BE50BC3940240DB050AED
:07165200E50AC3940440C542
:01165900226E
:02165A008F09F6
:10165C00750CFF750D04750ED6E4F50A7D02AF0A04
:10166C0012199DE4F50BAB0CAA0DA90E120B8C559F
:10167C0009FFD204120C517401250EF50EE4350D40
:10168C00F50D050BE50BC3940240DB050AE50AC317
:04169C00941140C89D
:0116A0002227
:021571008D09E2
:10157300EF75F038A424F8F9740435F0750CFFF511
:101583000D890EE4F50AE4FDAF0A12199DE4F50B8B
:10159300AB0CAA0DA90E120B8C5509FFD204120C29
:1015A300517401250EF50EE4350DF50D050BE50B14
:0E15B300C3940240DB050AE50AC3941C40C83D
:0115C1002207
:101978007509FF750A06750B10121AB675100075F1
:101988001104850912850A13850B147B807A00E4FB
:05199800FDFF021476C2
:071B8F00C2047FAE020C51FD
:10151E00C2047FAF120C51900097E0FEA3E0FF7C57
:10152E00007D0A120BC912185D900097E0FEA3E031
:10153E00FF7C007D0A120BC9AF0512189590009D15
:10154E00E0FEA3E0FF7C007D0A120BC91217A990E2
:10155E00009DE0FEA3E0FF7C007D0A120BC9AF05E3
:03156E000217A9B8
:101842004200950000420097000042009D000042C5
:0A185200009B0000C182C181C1802B
:101A6000D2AF538E7F5389F0438901758AC0758C3C
:061A700063D2A9D28C2212
:101A7600538EBF53890F438910758BC0758D63C212
:061A86008FD2ABC28E22DC
:03000B000213835A
:10138300C0E0C083C082900096E004F07006900035
:1013930095E004F0900095E07004A3E06432705B84
:1013A30090009CE004F0700690009BE004F0D200F3
:1013B300900095E4F0A3F090009BE07004A3E06438
:1013C3003C703890009EE004F0700690009DE004AD
:1013D300F0D20190009BE4F0A3F0A3E07004A3E03B
:1013E300643C7017900098E004F07006900097E05A
:1013F30004F0D20290009DE4F0A3F0758AC0758CCE
:0814030063D082D083D0E032F7
:10081000020A81E86480F8E933E83360110460F08B
:10082000ED33EC337009E8FCE9FDEAFEEBFF22044E
:1008300060DED3EB9FEA9EE99DE8C2E78CF0C2F749
:1008400095F0400CE8CCF8E9CDF9EACEFAEBCFFB15
:10085000120A4C85D0F05804700320D5B3E8047018
:10086000075002B2D5020A8B92D5EC0460F7E4CCB3
:10087000C0E0C398F8603B94186008400DD0E0FBDE
:10088000020A63E4FBFAC9FC8028E830E406E4C904
:10089000FBE4CAFCE830E305E4C9CACBFCE8540732
:1008A0006010F8C3E913F9EA13FAEB13FBEC13FC3D
:1008B000D8F130F52FC3E49CFCEF9BFFEE9AFEEDE0
:1008C00099FDD0E0FBEF4E4D4C701222DB03020A83
:1008D00088EC2CFCEF33FFEE33FEED33FDED30E71B
:1008E000EB020A63EF2BFFEE3AFEED39FDD0E0FBA1
:1008F00050130BBB0003020A8BED13FDEE13FEEF4A
:0809000013FFEC13FC020A6373
:10090800EC4D6011E8497017ED33EC3304600DE4E9
:10091800FCFFFEFD22E933E8330470F8020A811275
:100928000A4C58046009E4CC248150062850090276
:100938000A8B284003020A88C0E0EB4A7044B98059
:1009480006D0E0FB020A77EF4E701CBD8008EBFF73
:10095800EAFEE9FD80EBE98DF0A4FEE5F00209F17D
:10096800E9CDF9EAFEEBFFEF89F0A4FCE5F0CE89CA
:10097800F0A42EFFE435F0CD89F0A42DFEE435F087
:100988008067EF4E7005BD80D780C3EF8BF0A4ACB5
:10099800F0EE8BF0A42CFCE435F0F8EF8AF0A42CF0
:1009A800E5F038FCE433CB8DF0A42CFCE5F03BF803
:1009B800EE8AF0A42CFCE5F038F8E433CF89F0A4F3
:1009C8002CFCE5F038CF3400CE89F0A42FFFE5F0F9
:1009D8003EFEE433C98DF0A42EFEE5F039CD8AF051
:1009E800A42FFFE5F03EFEE43DFD33D0E0FB5007C9
:1009F8000BBB000F020A8BEC2CFCEF33FFEE33FE2F
:060A0800ED33FD020A635C
:100A0E0075F020800E75F010800575F0087D007E63
:100A1E00007F003392D530D503120C3DEC334010DD
:100A2E00EF33FFEE33FEED33FDEC33FCD5F0ED226C
:0E0A3E00E5F0247EA2D513CC92E7CDCEFF22A8
:100A4C00E9D2E7C933E833F892D5EDD2E7CD33ECF0
:070A5C0033FC5002B2D52269
:100A6300EC30E7100FBF000C0EBE00080DBD0004F4
:100A73000BEB6014A2D5EB13FCED92E7FD2274FFA0
:100A8300FCFDFEFF22E480F8A2D574FF13FC7D80F9
:030A9300E480EF0D
:10130300020EDFE493A3F8E493A34003F68001F213
:1013130008DFF48029E493A3F85407240CC8C333EB
:10132300C4540F4420C8834004F456800146F6DFBA
:10133300E4800B0102040810204080901825E47E0D
:10134300019360BCA3FF543F30E509541FFEE493AF
:10135300A360010ECF54C025E060A840B8E493A376
:10136300FAE493A3F8E493A3C8C582C8CAC583CAA1
:10137300F0A3C8C582C8CAC583CADFE9DEE780BE59
:01185C00008B
:100A9600E709F608DFFA8046E709F208DFFA803E42
:100AA60088828C83E709F0A3DFFA8032E309F6082F
:100AB600DFFA8078E309F208DFFA807088828C8397
:100AC600E309F0A3DFFA806489828A83E0A3F6084B
:100AD600DFFA805889828A83E0A3F208DFFA804C25
:100AE60080D280FA80C680D4806980F280338010FC
:100AF60080A680EA809A80A880DA80E280CA803365
:100B060089828A83ECFAE493A3C8C582C8CCC583DC
:100B1600CCF0A3C8C582C8CCC583CCDFE9DEE780AC
:100B26000D89828A83E493A3F608DFF9ECFAA9F02B
:100B3600EDFB2289828A83ECFAE0A3C8C582C8CC81
:100B4600C583CCF0A3C8C582C8CCC583CCDFEADE9A
:100B5600E880DB89828A83E493A3F208DFF980CCFC
:100B660088F0EF60010E4E60C388F0ED2402B404F5
:100B76000050B9F582EB2402B4040050AF2323459C
:060B86008223900AE673D1
:100B8C00BB010689828A83E0225002E722BBFE0267
:090B9C00E32289828A83E493229A
:100BA500BB010689828A83F0225002F722BBFE012F
:020BB500F32229
:100BB700EF8DF0A4A8F0CF8CF0A428CE8DF0A42E52
:020BC700FE220C
:100BC900BC000BBE0029EF8DF084FFADF022E4CC10
:100BD900F875F008EF2FFFEE33FEEC33FCEE9DECD9
:100BE900984005FCEE9DFE0FD5F0E9E4CEFD22ED1F
:100BF900F8F5F0EE8420D21CFEADF075F008EF2F69
:100C0900FFED33FD4007985006D5F0F222C398FD59
:050C19000FD5F0EA22F6
:100C1E00BB010A89828A83F0E5F0A3F0225006F721
:0F0C2E0009A7F01922BBFE06F3E5F009F319221E
:0E0C3D00C3E49FFFE49EFEE49DFDE49CFC22C8
:00000001FF
