:03000000020C18D7
:0C0C1800787FE4F6D8FD758138020C5F8F
:101204007C5D7DC01208897C2E7DE012089BD3EFA3
:0F1214009400EE9400400800EF1F70F21E80EF70
:0112230022A8
:0600030000007F1BDFFE80
:0100090022D4
:10125F007C64EF4E60131CEC60087D0A1DED60F698
:09126F0080FAEF1F70EC1E80E90B
:011278002253
:09130B00D2A6D2A7C2A7C2A622F5
:07131400D2A6C2A7D2A72256
:02114F008F1AF5
:10115100E4F51BF51BE51AC4131313540124FF9284
:10116100A7E51A25E0F51A120003D2A6120003C260
:10117100A6120003051BE51BC3940840D8D2A7D2D1
:01118100A6C7
:01118200224A
:1012CF0030A70D051EE51ED3941E40F4C2A680F074
:0112DF0022EC
:0E12F100C2A6D2A7D2A6120003C2A602000314
:1011B300D2A7120003E4F51CD2A6120003E51D25F5
:1011C300E0F51DA2A7E433421D120003C2A61200DC
:0C11D30003051CE51CC3940840DEAF1DA2
:0111DF0022ED
:10118300E4FFD2A7FE0000C2A60000D2A60000EF33
:1011930025E0FF30A7010F00000EBE08E80000C2E3
:0F11A300A60000C2A70000D2A60000C2A600004E
:0111B200221A
:0610A20012085EFFD203FC
:1010A8008F1930031012130B7F7812114FD2A6C27A
:1010B800A67F40800E12130B7F7812114FD2A6C262
:1010C800A6E4FF12114FD2A6C2A6AF1912114FD231
:0710D800A6C2A612131422A8
:1011E0008F18ED24B0FFC2031210A8E51854F0C404
:1011F000540F4410FFC2031210A8E518540FFFC289
:04120000030210A82D
:1012A500C2037F8D1210A8C2037F141210A8C203B7
:0512B5007FAF0210A84C
:1012BA00C2037F801210A8C2037F101210A8C203B3
:0512CA007FAE0210A838
:10122400E4F508E4F509D203E4FF1210A80509E582
:0F12340009C3940840F00508E508C3948040E41E
:011243002288
:100AD2007F647E0012125FC2037FAE1210A8C203AF
:100AE2007F401210A8C2037FB01210A8C2037FC8B1
:100AF2001210A8C2037F811210A8C2037FFF121036
:100B0200A8C2037FA11210A8C2037FA61210A8C216
:100B1200037FA81210A8C2037F1F1210A8C2037F6E
:100B2200D31210A8C203E4FF1210A8C2037FD51289
:100B320010A8C2037FF01210A8C2037FD91210A816
:100B4200C2037F221210A8C2037FDA1210A8C203C6
:100B52007F021210A8C2037FDB1210A8C2037F49D2
:100B62001210A8C2037F8D1210A8C2037F141210A4
:100B7200A8C2037F201210A8C2037F211210A8C2AC
:090B8200037FAF1210A802122437
:040DA1008F218B23F0
:100DA500E4F528F529E5245407700BE524131313FE
:100DB500541FF52B800AE524131313541F04F52B38
:100DC5008D2BE52BC39524502DAD2BAF211211E0B2
:100DD50085212AE52AC395235018AB25AA26A927DC
:100DE5001210A274012527F527E43526F526052AD4
:060DF50080E1052B80CC1B
:010DFB0022D5
:080DFC008F0B8D0C8A0D8B0E8C
:100E0400E4F514F515C3E515950EE514950D50425A
:100E1400E50B2515FFAD0C1211E0E4F516F517C32B
:100E2400E5179510E516950F501EAB11AA12A913DC
:100E34001210A274012513F513E43512F5120517E7
:100E4400E51770DB051680D70515E51570B7051491
:020E540080B369
:010E56002279
:100D2C0090FE817401F090FE82E030E6F990FE8234
:100D3C00E054BFF090FE8674AEF090FE817402F029
:100D4C0090FE82E030E6F990FE82E054BFF090FE17
:100D5C0086EFF090FE817402F090FE82E030E6F9AE
:100D6C0090FE82E054BFF090FE86EDF090FE817410
:100D7C0002F090FE82E030E6F990FE82E054BFF083
:100D8C0090FE817406F090FE82E030E6F990FE82CF
:050D9C00E054BFF0224D
:100B8B0090FE817401F090FE82E030E6F990FE82D7
:100B9B00E054BFF090FE8674AEF090FE817402F0CC
:100BAB0090FE82E030E6F990FE82E054BFF090FEBA
:100BBB0086EFF090FE817402F090FE82E030E6F951
:100BCB0090FE82E054BFF090FE817401F090FE82A3
:100BDB00E030E6F990FE82E054BFF090FE8674AFF1
:100BEB00F090FE817402F090FE82E030E6F990FE08
:100BFB0082E054BFF012000090FE817406F090FE6C
:0C0C0B0082E030E6F990FE82E054BFF079
:010C170022BA
:0C12FF00121329EF64116002C322D322F5
:1012E000E4FD7F04120D2C7F02120D2C7F05020DF0
:0112F0002CD1
:061329007FFF120B8B2276
:07131B007D087F06020D2C86
:100FE0007F16120B8B8F347F17120B8BAC07EC1212
:100FF00007E08F388E378D368C35E4FFFE7D807CA0
:101000003DAB38AA37A936A8351206D0C004C005B2
:10101000C006C007AC34E41207E0D003D002D00110
:05102000D0001205DF05
:0110250022A8
:1009EA008B318A32893390FE817401F090FE82E065
:1009FA0030E6F990FE82E054BFF090FE8674AEF0C5
:100A0A0090FE817402F090FE82E030E6F990FE8258
:100A1A00E054BFF090FE86EFF090FE817402F090F1
:100A2A00FE82E030E6F990FE82E054BFF090FE814B
:100A3A007401F090FE82E030E6F990FE82E054BF45
:100A4A00F090FE8674AFF090FE817402F090FE8200
:100A5A00E030E6F990FE82E054BFF015308020AF16
:100A6A00301530EF603390FE82E4F090FE81740519
:100A7A00F090FE82E030E6F990FE82E054BFF01278
:100A8A000000AB31AA32A933EF120877740125337B
:100A9A00F533E43532F53280C690FE827401F09067
:100AAA00FE817405F090FE82E030E6F990FE82E065
:100ABA0054BFF090FE817406F090FE82E030E6F9B1
:070ACA0090FE82E054BFF032
:010AD1002202
:1008FE00120AD2E4FF1210DFE4FF1211177FFF126B
:10090E000F4FE4FF121026E4FF1210647DFF7F04E8
:10091E00120EFE7FFF120F9912127990000C7401C5
:10092E00F090000CE0640160030209D5300006FF70
:10093E00120F4FC200900002E07004A3E064197021
:10094E00057FFF120F4F30013C90000AE0FEA3E03E
:10095E00FF7C007D0A12089BAF0512106490000AFE
:10096E00E0FEA3E0FF7C007D0A12089B900000E0F1
:10097E006E7003A3E06F600B900000EEF0A3EFF03B
:10098E00121026C201300299900004E0FEA3E0FF8F
:10099E007C007D0A12089BAF05121117900004E02F
:1009AE00FEA3E0FF7C007D0A12089B900006E06E1D
:1009BE007003A3E06F600B900006EEF0A3EFF01251
:1009CE0010DFC20202092F90000CE0640260F89062
:0C09DE00000CE06403600302092F80F3AA
:10000E000000000000000000FCFFFF3FFCFFFF3F70
:10001E00FCFFFF3FFCFFFF3F3C00003C3C00003C70
:10002E003C00003C3C00003C3C00003C3C00003CE2
:10003E003C00003C3C00003CFCFFFF3FFCFFFF3F50
:10004E00FCFFFF3FFCFFFF3F000000000000000030
:10005E000000000000000000000000000000000092
:10006E000000000000000000000000000000000082
:10007E000000000000000000000000000000000072
:10008E000000000000000000FCFFFF3FFCFFFF3FF0
:10009E00FCFFFF3FFCFFFF3F0000000000000000E0
:1000AE0000000000000000003CC0FF3F3CC0FF3FCE
:1000BE003CC0FF3F3CC0FF3F3CC0033C3CC0033C48
:1000CE003CC0033C3CC0033C3CC0033C3CC0033C36
:1000DE003CC0033C3CC0033CFCFF033CFCFF033C28
:1000EE00FCFF033CFCFF033C00000000000000008E
:1000FE0000000000000000003CC0033C3CC0033C7C
:10010E003CC0033C3CC0033C3CC0033C3CC0033CF5
:10011E003CC0033C3CC0033C3CC0033C3CC0033CE5
:10012E003CC0033C3CC0033CFCFFFF3FFCFFFF3FD9
:10013E00FCFFFF3FFCFFFF3F00000000000000003F
:10014E000000000000000000FCFF0300FCFF0300A5
:10015E00FCFF0300FCFF030000C0030000C003000F
:10016E0000C0030000C0030000C0030000C0030075
:10017E0000C0030000C00300FCFFFF3FFCFFFF3F79
:10018E00FCFFFF3FFCFFFF3F0000000000000000EF
:10019E000000000000000000FCFF033CFCFF033CDD
:1001AE00FCFF033CFCFF033C3CC0033C3CC0033C57
:1001BE003CC0033C3CC0033C3CC0033C3CC0033C45
:1001CE003CC0033C3CC0033C3CC0FF3F3CC0FF3F37
:1001DE003CC0FF3F3CC0FF3F00000000000000009D
:1001EE000000000000000000FCFFFF3FFCFFFF3F8F
:1001FE00FCFFFF3FFCFFFF3F3CC0033C3CC0033C09
:10020E003CC0033C3CC0033C3CC0033C3CC0033CF4
:10021E003CC0033C3CC0033C3CC0FF3F3CC0FF3FE6
:10022E003CC0FF3F3CC0FF3F00000000000000004C
:10023E0000000000000000003C0000003C00000038
:10024E003C0000003C0000003C0000003C000000B0
:10025E003C0000003C0000003C0000003C000000A0
:10026E003C0000003C000000FCFFFF3FFCFFFF3F96
:10027E00FCFFFF3FFCFFFF3F0000000000000000FE
:10028E000000000000000000FCFFFF3FFCFFFF3FEE
:10029E00FCFFFF3FFCFFFF3F3CC0033C3CC0033C68
:1002AE003CC0033C3CC0033C3CC0033C3CC0033C54
:1002BE003CC0033C3CC0033CFCFFFF3FFCFFFF3F48
:1002CE00FCFFFF3FFCFFFF3F0000000000000000AE
:1002DE000000000000000000FCFF033CFCFF033C9C
:1002EE00FCFF033CFCFF033C3CC0033C3CC0033C16
:1002FE003CC0033C3CC0033C3CC0033C3CC0033C04
:10030E003CC0033C3CC0033CFCFFFF3FFCFFFF3FF7
:10031E00FCFFFF3FFCFFFF3F00000000000000005D
:10032E000FF00FF00FF00FF0FEFF3FFEFF3FFEFF4E
:10033E003F0E00380E00380E00380E00380E003812
:10034E000E0038FEFF3FFEFF3FFEFF3F00000000A5
:10035E00000000000000000000000000000000008F
:10036E0000000000000000FEFF3FFEFF3FFEFF3FCB
:10037E000EFC3F0EFC3F0EFC3F0E1C380E1C380EC2
:10038E001C380E1C380E1C380E1C38FE1F38FE1F73
:10039E0038FE1F380E1C380E1C380E1C380E1C383A
:1003AE000E1C380E1C380E1C380E1C380E1C38FE57
:1003BE00FF3FFEFF3FFEFF3FFE1F00FE1F00FE1F22
:1003CE0000001C00001C00001C00001C00001C0093
:1003DE00001C00FEFF3FFEFF3FFEFF3FFE1F38FEEC
:1003EE001F38FE1F380E1C380E1C380E1C380E1C03
:1003FE00380E1C380E1C380EFC3F0EFC3F0EFC3F18
:10040E00FEFF3FFEFF3FFEFF3F0E1C380E1C380E58
:10041E001C380E1C380E1C380E1C380EFC3F0EFC01
:10042E003F0EFC3F0E00000E00000E00000E0000FE
:10043E000E00000E00000E00000E00000E0000FE6A
:10044E00FF3FFEFF3FFEFF3FFEFF3FFEFF3FFEFF73
:10045E003F0E1C380E1C380E1C380E1C380E1C3865
:10046E000E1C38FEFF3FFEFF3FFEFF3FFE1F38FE15
:10047E001F38FE1F380E1C380E1C380E1C380E1C72
:10048E00380E1C380E1C38FEFF3FFEFF3FFEFF3FAE
:10049E000000000000000000200840048002F01F51
:1004AE001011A00A4004000000000000000000002F
:1004BE00000000000000FC03040204020402040217
:1004CE0004020402040204020402040204020402EE
:1004DE000402FC03F0000000000000000000000019
:1004EE000000000000000000000000000000FC03FF
:1004FE000402F402F402F4020402040204020402EE
:10050E0004020402040204020402FC03F0000000D0
:10051E0000000000000000000000000000000000CD
:10052E00000000000000FC030402F402F402F402D6
:10053E000402F402F402F4020402040204020402AD
:10054E000402FC03F00000000000000000000000A8
:10055E000000000000000000000000000000FC038E
:10056E000402F402F402F4020402F402F402F402AD
:10057E000402F402F402F4020402FC03F000000090
:10058E00000000000000000000000000000000005D
:10059E00000000000000FC030402040214023402F6
:1005AE006402C402F40234026402C402840204022D
:1005BE000402FC03F0000000000000000000000038
:0A05CE000000000000000000000023
:060E57007B147A00E4FDAB
:080E5D008F0B8D0C8A0D8B0E2A
:100E6500E4F511F512C3E512950EE511950D503512
:100E7500E50B2512FFAD0C1211E0E4F513F514C3D3
:100E8500E5149510E513950F5011D203E4FF1210E8
:100E9500A80514E51470E8051380E40512E5127041
:050EA500C4051180C02E
:010EAA002225
:1010DF00EF75F050A4240EF9740035F07508FFF584
:1010EF0009890A750F007510047F22120E57750FAC
:1010FF0000751004850811850912850A137B147A6F
:08110F0000E4FD7F22020DFC4B
:10111700EF75F050A4240EF9740035F07508FFF54B
:1011270009890A750F007510047F37120E57750F5E
:1011370000751004850811850912850A137B147A36
:0811470000E4FD7F37020DFCFE
:10102600EF75F050A4240EF9740035F07508FFF53D
:1010360009890A750F007510047B147A00E4FD7F98
:1010460055120E5D750F007510048508118509127D
:0E105600850A137B147A00E4FD7F55020DFC21
:10106400EF75F050A4240EF9740035F07508FFF5FF
:1010740009890A750F007510047B147A00E4FD7F5A
:101084006A120E5D750F007510048508118509122A
:0E109400850A137B147A00E4FD7F6A020DFCCE
:020F4F008F0809
:100F5100750BFF750C03750D2EE4F509E509244D9C
:100F6100FF7D011211E0E4F50AAB0BAA0CA90D12E9
:100F7100085E5508FFD2031210A87401250DF50D66
:100F8100E4350CF50C050AE50AC3940240DB0509BA
:070F9100E509C3940440C50B
:010F98002236
:020F99008F08BF
:100F9B00750BFF750C04750D9EE4F5097D02AF0909
:100FAB001211E0E4F50AAB0BAA0CA90D12085E5561
:100FBB0008FFD2031210A87401250DF50DE4350CB2
:100FCB00F50C050AE50AC3940240DB0509E509C3E4
:040FDB00941140C865
:010FDF0022EF
:020EFE008D085D
:100F0000EF75F038A424C0F9740435F0750BFFF5C3
:100F10000C890DE4F509E4FDAF091211E0E4F50ACE
:100F2000AB0BAA0CA90D12085E5508FFD2031210D4
:100F3000A87401250DF50DE4350CF50C050AE50A3C
:0E0F4000C3940240DB0509E509C3941C40C8B8
:010F4E002280
:07132200C2037FAE0210A818
:100EAB00C2037FAF1210A8900004E0FEA3E0FF7C0A
:100EBB00007D0A12089B1210DF900004E0FEA3E0F5
:100ECB00FF7C007D0A12089BAF0512111790000AD8
:100EDB00E0FEA3E0FF7C007D0A12089B1210269017
:100EEB00000AE0FEA3E0FF7C007D0A12089BAF0521
:030EFB00021026BC
:101244004200020000420004000042000A00004282
:0A12540000080000C182C181C180C2
:10127900D2AF538E7F5389F0438901758AC0758C2B
:0612890063D2A9D28C2201
:10128F00538EBF53890F438910758BC0758D63C201
:06129F008FD2ABC28E22CB
:03000B00020CA440
:100CA400C0E0C083C082900003E004F070069000AE
:100CB40002E004F0900002E07004A3E06432705B90
:100CC400900009E004F07006900008E004F0D200FF
:100CD400900002E4F0A3F0900008E07004A3E06444
:100CE4003C703890000BE004F0700690000AE004B9
:100CF400F0D201900008E4F0A3F0A3E07004A3E0B4
:100D0400643C7017900005E004F07006900004E065
:100D140004F0D20290000AE4F0A3F0758AC0758C46
:080D240063D082D083D0E032DD
:1005D800020849E86480F8E933E83360110460F000
:1005E800ED33EC337009E8FCE9FDEAFEEBFF220489
:1005F80060DED3EB9FEA9EE99DE8C2E78CF0C2F784
:1006080095F0400CE8CCF8E9CDF9EACEFAEBCFFB4F
:1006180012081485D0F05804700320D5B3E804708C
:10062800075002B2D502085392D5EC0460F7E4CC27
:10063800C0E0C398F8603B94186008400DD0E0FB18
:1006480002082BE4FBFAC9FC8028E830E406E4C978
:10065800FBE4CAFCE830E305E4C9CACBFCE854076C
:100668006010F8C3E913F9EA13FAEB13FBEC13FC77
:10067800D8F130F52FC3E49CFCEF9BFFEE9AFEED1A
:1006880099FDD0E0FBEF4E4D4C701222DB030208BF
:1006980050EC2CFCEF33FFEE33FEED33FDED30E78D
:1006A800EB02082BEF2BFFEE3AFEED39FDD0E0FB15
:1006B80050130BBB0003020853ED13FDEE13FEEFBE
:0806C80013FFEC13FC02082BE8
:1006D000EC4D6011E8497017ED33EC3304600DE424
:1006E000FCFFFEFD22E933E8330470F802084912EA
:1006F000081458046009E4CC2481500628500902EB
:100700000853284003020850C0E0EB4A7044B98007
:1007100006D0E0FB02083FEF4E701CBD8008EBFFE7
:10072000EAFEE9FD80EBE98DF0A4FEE5F00207B9F1
:10073000E9CDF9EAFEEBFFEF89F0A4FCE5F0CE8904
:10074000F0A42EFFE435F0CD89F0A42DFEE435F0C1
:100750008067EF4E7005BD80D780C3EF8BF0A4ACEF
:10076000F0EE8BF0A42CFCE435F0F8EF8AF0A42C2A
:10077000E5F038FCE433CB8DF0A42CFCE5F03BF83D
:10078000EE8AF0A42CFCE5F038F8E433CF89F0A42D
:100790002CFCE5F038CF3400CE89F0A42FFFE5F033
:1007A0003EFEE433C98DF0A42EFEE5F039CD8AF08B
:1007B000A42FFFE5F03EFEE43DFD33D0E0FB500703
:1007C0000BBB000F020853EC2CFCEF33FFEE33FEA3
:0607D000ED33FD02082BD1
:1007D60075F020800E75F010800575F0087D007E9E
:1007E600007F003392D530D5031208F0EC33401069
:1007F600EF33FFEE33FEED33FDEC33FCD5F0ED22A7
:0E080600E5F0247EA2D513CC92E7CDCEFF22E2
:10081400E9D2E7C933E833F892D5EDD2E7CD33EC2A
:0708240033FC5002B2D522A3
:10082B00EC30E7100FBF000C0EBE00080DBD00042E
:10083B000BEB6014A2D5EB13FCED92E7FD2274FFDA
:10084B00FCFDFEFF22E480F8A2D574FF13FC7D8033
:03085B00E480EF47
:100C24000208FEE493A3F8E493A34003F68001F2E0
:100C340008DFF48029E493A3F85407240CC8C333D1
:100C4400C4540F4420C8834004F456800146F6DFA0
:100C5400E4800B0102040810204080901244E47EDA
:100C6400019360BCA3FF543F30E509541FFEE49395
:100C7400A360010ECF54C025E060A840B8E493A35C
:100C8400FAE493A3F8E493A3C8C582C8CAC583CA87
:100C9400F0A3C8C582C8CAC583CADFE9DEE780BE3F
:01125E00008F
:10085E00BB010689828A83E0225002E722BBFE0298
:09086E00E32289828A83E49322CB
:10087700BB010689828A83F0225002F722BBFE0160
:02088700F3225A
:10088900EF8DF0A4A8F0CF8CF0A428CE8DF0A42E83
:02089900FE223D
:10089B00BC000BBE0029EF8DF084FFADF022E4CC41
:1008AB00F875F008EF2FFFEE33FEEC33FCEE9DEC0A
:1008BB00984005FCEE9DFE0FD5F0E9E4CEFD22ED50
:1008CB00F8F5F0EE8420D21CFEADF075F008EF2F9A
:1008DB00FFED33FD4007985006D5F0F222C398FD8B
:0508EB000FD5F0EA2228
:0E08F000C3E49FFFE49EFEE49DFDE49CFC2219
:00000001FF
